{
  "_format": "hh-sol-artifact-1",
  "contractName": "FunctionsConsumer",
  "sourceName": "contracts/FunctionsConsumer.sol",
  "abi": [
    {
      "inputs": [
        {
          "internalType": "address",
          "name": "router",
          "type": "address"
        },
        {
          "internalType": "bytes32",
          "name": "_donId",
          "type": "bytes32"
        }
      ],
      "stateMutability": "nonpayable",
      "type": "constructor"
    },
    {
      "inputs": [],
      "name": "EmptyArgs",
      "type": "error"
    },
    {
      "inputs": [],
      "name": "EmptySource",
      "type": "error"
    },
    {
      "inputs": [],
      "name": "NoInlineSecrets",
      "type": "error"
    },
    {
      "inputs": [],
      "name": "OnlyRouterCanFulfill",
      "type": "error"
    },
    {
      "anonymous": false,
      "inputs": [
        {
          "indexed": true,
          "internalType": "address",
          "name": "from",
          "type": "address"
        },
        {
          "indexed": true,
          "internalType": "address",
          "name": "to",
          "type": "address"
        }
      ],
      "name": "OwnershipTransferRequested",
      "type": "event"
    },
    {
      "anonymous": false,
      "inputs": [
        {
          "indexed": true,
          "internalType": "address",
          "name": "from",
          "type": "address"
        },
        {
          "indexed": true,
          "internalType": "address",
          "name": "to",
          "type": "address"
        }
      ],
      "name": "OwnershipTransferred",
      "type": "event"
    },
    {
      "anonymous": false,
      "inputs": [
        {
          "indexed": true,
          "internalType": "bytes32",
          "name": "id",
          "type": "bytes32"
        }
      ],
      "name": "RequestFulfilled",
      "type": "event"
    },
    {
      "anonymous": false,
      "inputs": [
        {
          "indexed": true,
          "internalType": "bytes32",
          "name": "id",
          "type": "bytes32"
        }
      ],
      "name": "RequestSent",
      "type": "event"
    },
    {
      "inputs": [],
      "name": "acceptOwnership",
      "outputs": [],
      "stateMutability": "nonpayable",
      "type": "function"
    },
    {
      "inputs": [],
      "name": "donId",
      "outputs": [
        {
          "internalType": "bytes32",
          "name": "",
          "type": "bytes32"
        }
      ],
      "stateMutability": "view",
      "type": "function"
    },
    {
      "inputs": [
        {
          "internalType": "bytes32",
          "name": "requestId",
          "type": "bytes32"
        },
        {
          "internalType": "bytes",
          "name": "response",
          "type": "bytes"
        },
        {
          "internalType": "bytes",
          "name": "err",
          "type": "bytes"
        }
      ],
      "name": "handleOracleFulfillment",
      "outputs": [],
      "stateMutability": "nonpayable",
      "type": "function"
    },
    {
      "inputs": [],
      "name": "owner",
      "outputs": [
        {
          "internalType": "address",
          "name": "",
          "type": "address"
        }
      ],
      "stateMutability": "view",
      "type": "function"
    },
    {
      "inputs": [],
      "name": "s_lastError",
      "outputs": [
        {
          "internalType": "bytes",
          "name": "",
          "type": "bytes"
        }
      ],
      "stateMutability": "view",
      "type": "function"
    },
    {
      "inputs": [],
      "name": "s_lastRequestId",
      "outputs": [
        {
          "internalType": "bytes32",
          "name": "",
          "type": "bytes32"
        }
      ],
      "stateMutability": "view",
      "type": "function"
    },
    {
      "inputs": [],
      "name": "s_lastResponse",
      "outputs": [
        {
          "internalType": "bytes",
          "name": "",
          "type": "bytes"
        }
      ],
      "stateMutability": "view",
      "type": "function"
    },
    {
      "inputs": [
        {
          "internalType": "string",
          "name": "source",
          "type": "string"
        },
        {
          "internalType": "enum FunctionsRequest.Location",
          "name": "secretsLocation",
          "type": "uint8"
        },
        {
          "internalType": "bytes",
          "name": "encryptedSecretsReference",
          "type": "bytes"
        },
        {
          "internalType": "string[]",
          "name": "args",
          "type": "string[]"
        },
        {
          "internalType": "bytes[]",
          "name": "bytesArgs",
          "type": "bytes[]"
        },
        {
          "internalType": "uint64",
          "name": "subscriptionId",
          "type": "uint64"
        },
        {
          "internalType": "uint32",
          "name": "callbackGasLimit",
          "type": "uint32"
        }
      ],
      "name": "sendRequest",
      "outputs": [],
      "stateMutability": "nonpayable",
      "type": "function"
    },
    {
      "inputs": [
        {
          "internalType": "bytes32",
          "name": "newDonId",
          "type": "bytes32"
        }
      ],
      "name": "setDonId",
      "outputs": [],
      "stateMutability": "nonpayable",
      "type": "function"
    },
    {
      "inputs": [
        {
          "internalType": "address",
          "name": "to",
          "type": "address"
        }
      ],
      "name": "transferOwnership",
      "outputs": [],
      "stateMutability": "nonpayable",
      "type": "function"
    }
  ],
  "bytecode": "0x60a06040523480156200001157600080fd5b50604051620019f1380380620019f1833981016040819052620000349162000183565b6001600160a01b0382166080523380600081620000985760405162461bcd60e51b815260206004820152601860248201527f43616e6e6f7420736574206f776e657220746f207a65726f000000000000000060448201526064015b60405180910390fd5b600080546001600160a01b0319166001600160a01b0384811691909117909155811615620000cb57620000cb81620000d8565b50505060025550620001bf565b336001600160a01b03821603620001325760405162461bcd60e51b815260206004820152601760248201527f43616e6e6f74207472616e7366657220746f2073656c6600000000000000000060448201526064016200008f565b600180546001600160a01b0319166001600160a01b0383811691821790925560008054604051929316917fed8889f560326eb138920d842192f0eb3dd22b4f139c87a2c57538e05bae12789190a350565b600080604083850312156200019757600080fd5b82516001600160a01b0381168114620001af57600080fd5b6020939093015192949293505050565b60805161180f620001e26000396000818161018501526109c3015261180f6000f3fe608060405234801561001057600080fd5b50600436106100be5760003560e01c806379ba5097116100765780638dbe7b9d1161005b5780638dbe7b9d14610147578063b1e217491461015e578063f2fde38b1461016757600080fd5b806379ba5097146101245780638da5cb5b1461012c57600080fd5b80633944ea3a116100a75780633944ea3a146100eb5780634b0795a81461010957806378ca5de71461011157600080fd5b80630ca76175146100c3578063231c1619146100d8575b600080fd5b6100d66100d13660046110b5565b61017a565b005b6100d66100e63660046111f0565b610217565b6100f361036a565b604051610100919061132d565b60405180910390f35b6100f36103f8565b6100d661011f366004611340565b610405565b6100d6610412565b6000546040516001600160a01b039091168152602001610100565b61015060025481565b604051908152602001610100565b61015060035481565b6100d6610175366004611359565b6104d5565b336001600160a01b037f000000000000000000000000000000000000000000000000000000000000000016146101dc576040517fc6829f8300000000000000000000000000000000000000000000000000000000815260040160405180910390fd5b6101e78383836104e9565b60405183907f85e1543bf2f84fe80c6badbce3648c8539ad1df4d2b3d822938ca0538be727e690600090a2505050565b61021f610508565b6102606040805160e0810190915280600081526020016000815260200160008152602001606081526020016060815260200160608152602001606081525090565b6102a76000808e8e8080601f016020809104026020016040519081016040528093929190818152602001838380828437600092019190915250879594939250506105649050565b602081018a60028111156102bd576102bd611382565b908160028111156102d0576102d0611382565b8152505088888080601f016020809104026020016040519081016040528093929190818152602001838380828437600092019190915250505050608082015285156103295761032961032287896113bc565b82906105fb565b83156103435761034361033c8587611449565b8290610625565b61035961034f8261064f565b84846002546109be565b600355505050505050505050505050565b60048054610377906114b1565b80601f01602080910402602001604051908101604052809291908181526020018280546103a3906114b1565b80156103f05780601f106103c5576101008083540402835291602001916103f0565b820191906000526020600020905b8154815290600101906020018083116103d357829003601f168201915b505050505081565b60058054610377906114b1565b61040d610508565b600255565b6001546001600160a01b031633146104715760405162461bcd60e51b815260206004820152601660248201527f4d7573742062652070726f706f736564206f776e65720000000000000000000060448201526064015b60405180910390fd5b600080543373ffffffffffffffffffffffffffffffffffffffff19808316821784556001805490911690556040516001600160a01b0390921692909183917f8be0079c531659141344cd1fd0a4f28419497f9722a3daafe3b4186f6b6457e091a350565b6104dd610508565b6104e681610a90565b50565b60046104f5838261153b565b506005610502828261153b565b50505050565b6000546001600160a01b031633146105625760405162461bcd60e51b815260206004820152601660248201527f4f6e6c792063616c6c61626c65206279206f776e6572000000000000000000006044820152606401610468565b565b805160000361059f576040517f22ce3edd00000000000000000000000000000000000000000000000000000000815260040160405180910390fd5b838360028111156105b2576105b2611382565b908160028111156105c5576105c5611382565b905250604084018280156105db576105db611382565b908180156105eb576105eb611382565b9052506060909301929092525050565b805160000361061d5760405163fe936cb760e01b815260040160405180910390fd5b60a090910152565b80516000036106475760405163fe936cb760e01b815260040160405180910390fd5b60c090910152565b6060600061065e610100610b46565b90506106a86040518060400160405280600c81526020017f636f64654c6f636174696f6e000000000000000000000000000000000000000081525082610b6790919063ffffffff16565b82516106c69060028111156106bf576106bf611382565b8290610b85565b60408051808201909152600881527f6c616e67756167650000000000000000000000000000000000000000000000006020820152610705908290610b67565b604083015161071c9080156106bf576106bf611382565b60408051808201909152600681527f736f757263650000000000000000000000000000000000000000000000000000602082015261075b908290610b67565b606083015161076b908290610b67565b60a083015151156108105760408051808201909152600481527f617267730000000000000000000000000000000000000000000000000000000060208201526107b5908290610b67565b6107be81610bc2565b60005b8360a0015151811015610806576107fe8460a0015182815181106107e7576107e76115fb565b602002602001015183610b6790919063ffffffff16565b6001016107c1565b5061081081610be6565b608083015151156109115760008360200151600281111561083357610833611382565b0361086a576040517fa80d31f700000000000000000000000000000000000000000000000000000000815260040160405180910390fd5b60408051808201909152600f81527f736563726574734c6f636174696f6e000000000000000000000000000000000060208201526108a9908290610b67565b6108c2836020015160028111156106bf576106bf611382565b60408051808201909152600781527f73656372657473000000000000000000000000000000000000000000000000006020820152610901908290610b67565b6080830151610911908290610c04565b60c083015151156109b65760408051808201909152600981527f6279746573417267730000000000000000000000000000000000000000000000602082015261095b908290610b67565b61096481610bc2565b60005b8360c00151518110156109ac576109a48460c00151828151811061098d5761098d6115fb565b602002602001015183610c0490919063ffffffff16565b600101610967565b506109b681610be6565b515192915050565b6000807f00000000000000000000000000000000000000000000000000000000000000006001600160a01b031663461d27628688600188886040518663ffffffff1660e01b8152600401610a16959493929190611611565b6020604051808303816000875af1158015610a35573d6000803e3d6000fd5b505050506040513d601f19601f82011682018060405250810190610a59919061165b565b60405190915081907f1131472297a800fee664d1d89cfa8f7676ff07189ecc53f80bbb5f4969099db890600090a295945050505050565b336001600160a01b03821603610ae85760405162461bcd60e51b815260206004820152601760248201527f43616e6e6f74207472616e7366657220746f2073656c660000000000000000006044820152606401610468565b6001805473ffffffffffffffffffffffffffffffffffffffff19166001600160a01b0383811691821790925560008054604051929316917fed8889f560326eb138920d842192f0eb3dd22b4f139c87a2c57538e05bae12789190a350565b610b4e610fc1565b8051610b5a9083610c11565b5060006020820152919050565b610b748260038351610c8b565b8151610b809082610dac565b505050565b8151610b929060c2610dd4565b50610bbe8282604051602001610baa91815260200190565b604051602081830303815290604052610c04565b5050565b610bcd816004610e3d565b600181602001818151610be0919061168a565b90525050565b610bf1816007610e3d565b600181602001818151610be0919061169d565b610b748260028351610c8b565b604080518082019091526060815260006020820152610c316020836116b0565b15610c5957610c416020836116b0565b610c4c90602061169d565b610c56908361168a565b91505b602080840183905260405180855260008152908184010181811015610c7d57600080fd5b604052508290505b92915050565b60178167ffffffffffffffff1611610cb25782516105029060e0600585901b168317610dd4565b60ff8167ffffffffffffffff1611610cf4578251610cdb906018611fe0600586901b1617610dd4565b5082516105029067ffffffffffffffff83166001610e54565b61ffff8167ffffffffffffffff1611610d37578251610d1e906019611fe0600586901b1617610dd4565b5082516105029067ffffffffffffffff83166002610e54565b63ffffffff8167ffffffffffffffff1611610d7c578251610d6390601a611fe0600586901b1617610dd4565b5082516105029067ffffffffffffffff83166004610e54565b8251610d9390601b611fe0600586901b1617610dd4565b5082516105029067ffffffffffffffff83166008610e54565b604080518082019091526060815260006020820152610dcd83838451610ed9565b9392505050565b6040805180820190915260608152600060208201528251516000610df982600161168a565b905084602001518210610e1a57610e1a85610e158360026116d2565b610faa565b8451602083820101858153508051821115610e33578181525b5093949350505050565b8151610b8090601f611fe0600585901b1617610dd4565b6040805180820190915260608152600060208201528351516000610e78828561168a565b90508560200151811115610e9557610e9586610e158360026116d2565b60006001610ea5866101006117cd565b610eaf919061169d565b90508651828101878319825116178152508051831115610ecd578281525b50959695505050505050565b6040805180820190915260608152600060208201528251821115610efc57600080fd5b8351516000610f0b848361168a565b90508560200151811115610f2857610f2886610e158360026116d2565b855180518382016020019160009180851115610f42578482525b505050602086015b60208610610f825780518252610f6160208361168a565b9150610f6e60208261168a565b9050610f7b60208761169d565b9550610f4a565b51815160001960208890036101000a0190811690199190911617905250849150509392505050565b8151610fb68383610c11565b506105028382610dac565b6040518060400160405280610fe9604051806040016040528060608152602001600081525090565b8152602001600081525090565b634e487b7160e01b600052604160045260246000fd5b604051601f8201601f1916810167ffffffffffffffff8111828210171561103557611035610ff6565b604052919050565b600067ffffffffffffffff83111561105757611057610ff6565b61106a601f8401601f191660200161100c565b905082815283838301111561107e57600080fd5b828260208301376000602084830101529392505050565b600082601f8301126110a657600080fd5b610dcd8383356020850161103d565b6000806000606084860312156110ca57600080fd5b83359250602084013567ffffffffffffffff808211156110e957600080fd5b6110f587838801611095565b9350604086013591508082111561110b57600080fd5b5061111886828701611095565b9150509250925092565b60008083601f84011261113457600080fd5b50813567ffffffffffffffff81111561114c57600080fd5b60208301915083602082850101111561116457600080fd5b9250929050565b80356003811061117a57600080fd5b919050565b60008083601f84011261119157600080fd5b50813567ffffffffffffffff8111156111a957600080fd5b6020830191508360208260051b850101111561116457600080fd5b803567ffffffffffffffff8116811461117a57600080fd5b803563ffffffff8116811461117a57600080fd5b600080600080600080600080600080600060e08c8e03121561121157600080fd5b67ffffffffffffffff808d35111561122857600080fd5b6112358e8e358f01611122565b909c509a5061124660208e0161116b565b99508060408e0135111561125957600080fd5b6112698e60408f01358f01611122565b909950975060608d013581101561127f57600080fd5b61128f8e60608f01358f0161117f565b909750955060808d01358110156112a557600080fd5b506112b68d60808e01358e0161117f565b90945092506112c760a08d016111c4565b91506112d560c08d016111dc565b90509295989b509295989b9093969950565b6000815180845260005b8181101561130d576020818501810151868301820152016112f1565b506000602082860101526020601f19601f83011685010191505092915050565b602081526000610dcd60208301846112e7565b60006020828403121561135257600080fd5b5035919050565b60006020828403121561136b57600080fd5b81356001600160a01b0381168114610dcd57600080fd5b634e487b7160e01b600052602160045260246000fd5b600067ffffffffffffffff8211156113b2576113b2610ff6565b5060051b60200190565b60006113cf6113ca84611398565b61100c565b80848252602080830192508560051b8501368111156113ed57600080fd5b855b8181101561143d57803567ffffffffffffffff81111561140f5760008081fd5b870136601f8201126114215760008081fd5b61142f36823586840161103d565b8652509382019382016113ef565b50919695505050505050565b60006114576113ca84611398565b80848252602080830192508560051b85013681111561147557600080fd5b855b8181101561143d57803567ffffffffffffffff8111156114975760008081fd5b6114a336828a01611095565b865250938201938201611477565b600181811c908216806114c557607f821691505b6020821081036114e557634e487b7160e01b600052602260045260246000fd5b50919050565b601f821115610b80576000816000526020600020601f850160051c810160208610156115145750805b601f850160051c820191505b8181101561153357828155600101611520565b505050505050565b815167ffffffffffffffff81111561155557611555610ff6565b6115698161156384546114b1565b846114eb565b602080601f83116001811461159e57600084156115865750858301515b600019600386901b1c1916600185901b178555611533565b600085815260208120601f198616915b828110156115cd578886015182559484019460019091019084016115ae565b50858210156115eb5787850151600019600388901b60f8161c191681555b5050505050600190811b01905550565b634e487b7160e01b600052603260045260246000fd5b67ffffffffffffffff8616815260a06020820152600061163460a08301876112e7565b61ffff9590951660408301525063ffffffff92909216606083015260809091015292915050565b60006020828403121561166d57600080fd5b5051919050565b634e487b7160e01b600052601160045260246000fd5b80820180821115610c8557610c85611674565b81810381811115610c8557610c85611674565b6000826116cd57634e487b7160e01b600052601260045260246000fd5b500690565b8082028115828204841417610c8557610c85611674565b600181815b8085111561172457816000190482111561170a5761170a611674565b8085161561171757918102915b93841c93908002906116ee565b509250929050565b60008261173b57506001610c85565b8161174857506000610c85565b816001811461175e576002811461176857611784565b6001915050610c85565b60ff84111561177957611779611674565b50506001821b610c85565b5060208310610133831016604e8410600b84101617156117a7575081810a610c85565b6117b183836116e9565b80600019048211156117c5576117c5611674565b029392505050565b6000610dcd838361172c56fea2646970667358221220b88da1a37f47a41d67747f093d4336251e77dc860a00150af843d1ed2da23a2f64736f6c63430008160033",
  "linkReferences": {},
  "deployedLinkReferences": {}
}